:100000000C942A000C943C000C943C000C943C0092
:100010000C943C000C943C000C943C000C943C0070
:100020000C943C000C943C000C943C000C943C0060
:100030000C943C000C943C000C943C000C943C0050
:100040000C943C000C943C000C943C000C943C0040
:100050000C943C0011241FBECFE5D8E0DEBFCDBF1D
:1000600020E0A0E6B0E001C01D92A136B207E1F7A2
:100070000E9468000C94C5030C94000062E082E0CA
:100080000E945C0063E080E00E945C00089562E0F2
:1000900082E00E94600088EE93E00E946B0162E0C3
:1000A00082E00E94640088EE93E00E946B0163E0AE
:1000B00080E00E946000089541E00E946D00089574
:1000C00040E00E94DB00089541E00E94DB000895BB
:1000D0000E943E000E944700FDCF411138C0813090
:1000E00091F028F08230D9F0833029F108952AB3B5
:1000F00081E090E002C0880F991F6A95E2F7809531
:1001000082238ABB089527B381E090E002C0880F64
:10011000991F6A95E2F78095822387BB089524B3DF
:1001200081E090E002C0880F991F6A95E2F7809500
:10013000822384BB089521B381E090E002C0880F40
:10014000991F6A95E2F78095822381BB08958130DB
:1001500089F028F08230C9F0833011F108952AB374
:1001600081E090E002C0880F991F6A95E2F7822B28
:100170008ABB089527B381E090E002C0880F991FE1
:100180006A95E2F7822B87BB089524B381E090E063
:1001900002C0880F991F6A95E2F7822B84BB0895ED
:1001A00021B381E090E002C0880F991F6A95E2F7C1
:1001B000822B81BB0895411134C0813089F028F031
:1001C0008230C9F0833011F108952BB381E090E0C3
:1001D00002C0880F991F6A95E2F7822B8BBB0895A6
:1001E00028B381E090E002C0880F991F6A95E2F77A
:1001F000822B88BB089525B381E090E002C0880F70
:10020000991F6A95E2F7822B85BB089522B381E09E
:1002100090E002C0880F991F6A95E2F7822B82BB9B
:100220000895813091F028F08230D9F0833029F19F
:1002300008952BB381E090E002C0880F991F6A9562
:10024000E2F7809582238BBB089528B381E090E08C
:1002500002C0880F991F6A95E2F78095822388BBB8
:10026000089525B381E090E002C0880F991F6A9538
:10027000E2F78095822385BB089522B381E090E068
:1002800002C0880F991F6A95E2F78095822382BB8E
:10029000089512BE83B78F7783BF89B7816089BF06
:1002A000089583B7816083BF83B7846083BF089557
:1002B00083B78E7F83BF83B78D7F83BF83B78B7FE9
:1002C00083BF089582B7089588B78170089588B76D
:1002D000816088BF0895CF92DF92EF92FF920F93D3
:1002E0001F93CF93BC0180E090E00E94CA022FE6EA
:1002F00032E143E85FE30E9429026B017C0120E0C8
:1003000030E040E85BE30E9458030E949B02609348
:10031000600070E0762F6627072E000C880B990B83
:100320000E94CC029B01AC01C701B6010E94BC0136
:100330000E949B028B010E9449010E945101C0E072
:1003400007C00E9464018823E1F30E946701CF5F28
:1003500080916000C817A8F30E94620190E008171E
:100360001907D1F70E945801CF911F910F91FF906B
:10037000EF90DF90CF9008955058BB27AA270E9496
:10038000D4010C941E030E94100338F00E9417033E
:1003900020F039F49F3F19F426F40C940D030EF469
:1003A000E095E7FB0C940703E92F0E942F0358F315
:1003B000BA17620773078407950720F079F4A6F54A
:1003C0000C9451030EF4E0950B2EBA2FA02D0B01C7
:1003D000B90190010C01CA01A0011124FF27591B8A
:1003E00099F0593F50F4503E68F11A16F040A22F90
:1003F000232F342F4427585FF3CF46953795279501
:10040000A795F0405395C9F77EF41F16BA0B620BFF
:10041000730B840BBAF09150A1F0FF0FBB1F661F46
:10042000771F881FC2F70EC0BA0F621F731F841F89
:1004300048F4879577956795B795F7959E3F08F0AF
:10044000B0CF9395880F08F09927EE0F9795879571
:1004500008950E943D020C941E030E94170358F059
:100460000E94100340F029F45F3F29F00C94070329
:1004700051110C9452030C940D030E942F0368F346
:100480009923B1F3552391F3951B550BBB27AA274D
:1004900062177307840738F09F5F5F4F220F331F87
:1004A000441FAA1FA9F335D00E2E3AF0E0E832D04F
:1004B00091505040E695001CCAF72BD0FE2F29D052
:1004C000660F771F881FBB1F261737074807AB0724
:1004D000B0E809F0BB0B802DBF01FF2793585F4F99
:1004E0003AF09E3F510578F00C9407030C945203A8
:1004F0005F3FE4F3983ED4F3869577956795B7957B
:10050000F7959F5FC9F7880F911D9695879597F985
:100510000895E1E0660F771F881FBB1F62177307FE
:100520008407BA0720F0621B730B840BBA0BEE1F13
:1005300088F7E09508950E94370388F09F5798F058
:10054000B92F9927B751B0F0E1F0660F771F881FD8
:10055000991F1AF0BA95C9F714C0B13091F00E94F2
:100560005103B1E008950C945103672F782F882729
:10057000B85F39F0B93FCCF3869577956795B39519
:10058000D9F73EF490958095709561957F4F8F4F88
:100590009F4F0895E89409C097FB3EF4909580958D
:1005A000709561957F4F8F4F9F4F9923A9F0F92F39
:1005B00096E9BB279395F695879577956795B795B7
:1005C000F111F8CFFAF4BB0F11F460FF1BC06F5F9D
:1005D0007F4F8F4F9F4F16C0882311F096E911C0AF
:1005E000772321F09EE8872F762F05C0662371F0D0
:1005F00096E8862F70E060E02AF09A95660F771FE4
:10060000881FDAF7880F9695879597F9089597F9D7
:100610009F6780E870E060E008959FEF80EC0895A8
:1006200000240A94161617061806090608950024D1
:100630000A9412161306140605060895092E03944B
:10064000000C11F4882352F0BB0F40F4BF2B11F4BF
:1006500060FF04C06F5F7F4F8F4F9F4F089557FD1E
:100660009058440F551F59F05F3F71F04795880F20
:1006700097FB991F61F09F3F79F0879508951216B7
:1006800013061406551FF2CF4695F1DF08C0161663
:1006900017061806991FF1CF869571056105089414
:1006A0000895E894BB2766277727CB0197F908952B
:1006B0000E946B030C941E030E94100338F00E94EA
:1006C000170320F0952311F00C9407030C940D03ED
:1006D00011240C9452030E942F0370F3959FC1F3D1
:1006E000950F50E0551F629FF001729FBB27F00DE0
:1006F000B11D639FAA27F00DB11DAA1F649F662735
:10070000B00DA11D661F829F2227B00DA11D621F83
:10071000739FB00DA11D621F839FA00D611D221F3D
:10072000749F3327A00D611D231F849F600D211D21
:10073000822F762F6A2F11249F5750409AF0F1F0A4
:1007400088234AF0EE0FFF1FBB1F661F771F881F0D
:1007500091505040A9F79E3F510580F00C9407033B
:100760000C9452035F3FE4F3983ED4F3869577955B
:100770006795B795F795E7959F5FC1F7FE2B880FB3
:0E078000911D9695879597F90895F894FFCFEF
:00000001FF
