:100000000C942A000C943C000C943C000C943C0092
:100010000C943C000C943C000C943C000C943C0070
:100020000C943C000C943C000C943C000C943C0060
:100030000C943C000C943C000C943C000C943C0050
:100040000C943C000C943C000C943C000C943C0040
:100050000C943C0011241FBECFE5D8E0DEBFCDBF1D
:1000600020E0A0E6B0E001C01D92A136B207E1F7A2
:100070000E949D000C94B4030C9400000F9303E0C5
:1000800022E041E060E082E00E94730060E083E0F3
:100090000E94990061E083E00E94990060E082E0A4
:1000A0000E9491000F910895CF93DF9360E082E06A
:1000B0000E94910088EE93E00E945A01C1E0D0E0D6
:1000C0000CC06C2F82E00E94910088EE93E00E94A9
:1000D0005A0182E00E9428012196CA30D1058CF392
:1000E000DF91CF9108950F931F93CF93DF93C82F84
:1000F000142FD22F41E00E94A20041E0612F8C2FEB
:100100000E94A20041E06D2F8C2F0E94A20041E0CE
:10011000602F8C2F0E94A200DF91CF911F910F9131
:1001200008956A3018F40E94100108950E94280171
:10013000089540E00E94A20008950E943E000E949F
:100140005400FDCF411138C0813091F028F0823049
:10015000D9F0833029F108952AB381E090E002C0FC
:10016000880F991F6A95E2F7809582238ABB0895CC
:1001700027B381E090E002C0880F991F6A95E2F7EB
:100180008095822387BB089524B381E090E002C06C
:10019000880F991F6A95E2F78095822384BB0895A2
:1001A00021B381E090E002C0880F991F6A95E2F7C1
:1001B0008095822381BB0895813089F028F08230B8
:1001C000C9F0833011F108952AB381E090E002C0B4
:1001D000880F991F6A95E2F7822B8ABB089527B38F
:1001E00081E090E002C0880F991F6A95E2F7822BA8
:1001F00087BB089524B381E090E002C0880F991F67
:100200006A95E2F7822B84BB089521B381E090E0E8
:1002100002C0880F991F6A95E2F7822B81BB08956F
:10022000813051F028F0823059F0833069F0089520
:100230008BB3682B6BBB089588B3682B68BB08959C
:1002400085B3682B65BB089582B3682B62BB0895A4
:10025000813041F028F0823039F0833039F0089550
:100260001BBA089518BA089515BA089512BA0895D8
:1002700012BE83B78F7783BF89B7816089BF089526
:1002800083B7816083BF83B7846083BF089583B7DA
:100290008E7F83BF83B78D7F83BF83B78B7F83BF01
:1002A000089582B7089588B78170089588B78160EE
:1002B00088BF0895CF92DF92EF92FF920F931F9322
:1002C000CF93BC0180E090E00E94B9022FE632E1BA
:1002D00043E85FE30E9418026B017C0120E030E0FC
:1002E00040E85BE30E9447030E948A02609360003B
:1002F00070E0762F6627072E000C880B990B0E9462
:10030000BB029B01AC01C701B6010E94AB010E9478
:100310008A028B010E9438010E944001C0E007C0A0
:100320000E9453018823E1F30E945601CF5F809120
:100330006000C817A8F30E94510190E00817190740
:10034000D1F70E944701CF911F910F91FF90EF903D
:10035000DF90CF9008955058BB27AA270E94C30171
:100360000C940D030E94FF0238F00E94060320F057
:1003700039F49F3F19F426F40C94FC020EF4E09536
:10038000E7FB0C94F602E92F0E941E0358F3BA17FC
:10039000620773078407950720F079F4A6F50C949B
:1003A00040030EF4E0950B2EBA2FA02D0B01B901DE
:1003B00090010C01CA01A0011124FF27591B99F0DB
:1003C000593F50F4503E68F11A16F040A22F232FE7
:1003D000342F4427585FF3CF469537952795A79537
:1003E000F0405395C9F77EF41F16BA0B620B730BDE
:1003F000840BBAF09150A1F0FF0FBB1F661F771F4F
:10040000881FC2F70EC0BA0F621F731F841F48F403
:10041000879577956795B795F7959E3F08F0B0CF8C
:100420009395880F08F09927EE0F97958795089573
:100430000E942C020C940D030E94060358F00E94A7
:10044000FF0240F029F45F3F29F00C94F6025111AD
:100450000C9441030C94FC020E941E0368F3992340
:10046000B1F3552391F3951B550BBB27AA276217B0
:100470007307840738F09F5F5F4F220F331F441FBD
:10048000AA1FA9F335D00E2E3AF0E0E832D09150F1
:100490005040E695001CCAF72BD0FE2F29D0660FDE
:1004A000771F881FBB1F261737074807AB07B0E821
:1004B00009F0BB0B802DBF01FF2793585F4F3AF027
:1004C0009E3F510578F00C94F6020C9441035F3F77
:1004D000E4F3983ED4F3869577956795B795F795AD
:1004E0009F5FC9F7880F911D9695879597F9089595
:1004F000E1E0660F771F881FBB1F62177307840731
:10050000BA0720F0621B730B840BBA0BEE1F88F73F
:10051000E09508950E94260388F09F5798F0B92F20
:100520009927B751B0F0E1F0660F771F881F991F28
:100530001AF0BA95C9F714C0B13091F00E94400387
:10054000B1E008950C944003672F782F8827B85F97
:1005500039F0B93FCCF3869577956795B395D9F780
:100560003EF490958095709561957F4F8F4F9F4F8A
:100570000895E89409C097FB3EF490958095709596
:1005800061957F4F8F4F9F4F9923A9F0F92F96E9DF
:10059000BB279395F695879577956795B795F11154
:1005A000F8CFFAF4BB0F11F460FF1BC06F5F7F4FF1
:1005B0008F4F9F4F16C0882311F096E911C0772303
:1005C00021F09EE8872F762F05C0662371F096E80C
:1005D000862F70E060E02AF09A95660F771F881FDB
:1005E000DAF7880F9695879597F9089597F99F6799
:1005F00080E870E060E008959FEF80EC08950024AB
:100600000A941616170618060906089500240A9477
:1006100012161306140605060895092E0394000CFD
:1006200011F4882352F0BB0F40F4BF2B11F460FF8C
:1006300004C06F5F7F4F8F4F9F4F089557FD9058B5
:10064000440F551F59F05F3F71F04795880F97FB96
:10065000991F61F09F3F79F0879508951216130650
:100660001406551FF2CF4695F1DF08C0161617067F
:100670001806991FF1CF86957105610508940895B4
:10068000E894BB2766277727CB0197F908950E9446
:100690005A030C940D030E94FF0238F00E940603D7
:1006A00020F0952311F00C94F6020C94FC02112416
:1006B0000C9441030E941E0370F3959FC1F3950FA4
:1006C00050E0551F629FF001729FBB27F00DB11DD6
:1006D000639FAA27F00DB11DAA1F649F6627B00D66
:1006E000A11D661F829F2227B00DA11D621F739F4F
:1006F000B00DA11D621F839FA00D611D221F749F5D
:100700003327A00D611D231F849F600D211D822FA3
:10071000762F6A2F11249F5750409AF0F1F08823CA
:100720004AF0EE0FFF1FBB1F661F771F881F9150F7
:100730005040A9F79E3F510580F00C94F6020C94AE
:1007400041035F3FE4F3983ED4F386957795679530
:10075000B795F795E7959F5FC1F7FE2B880F911D21
:0C0760009695879597F90895F894FFCFBF
:00000001FF
